S00F00007470332D656E742E737265638A
S11300000C9434000C9451000C9451000C94510045
S11300100C9451000C9451000C9451000C94510018
S11300200C9451000C9451000C9451000C94510008
S11300300C9451000C9451000C9451000C945100F8
S11300400C9451000C9451000C94E0020C94F302B3
S11300500C9451000C9451000C9451000C945100D8
S11300600C9451000C94510011241FBECFEFD8E022
S1130070DEBFCDBF11E0A0E0B1E0EEE3FCE002C0E2
S113008005900D92A43BB107D9F722E0A4EBB1E0AF
S113009001C01D92A232B207E1F70E94A6010C949E
S11300A01D060C94000087B1816087B988B18E7FEA
S11300B088B92FEF80EE90E0215080409040E1F726
S11300C000C0000087B18E7F87B988B1816088B98C
S11300D03099FECF309BFECF089580E090E040E061
S11300E050E01AC03099FECF309BFECF20E030E0C4
S11300F006C065E06A95F1F700002F5F3F4F309925
S1130100F8CF2D3131051CF4880F991F03C0880FD7
S1130110991F81604F5F5F4F483051051CF308956C
S1130120CF92DF92EF92FF920F931F93CF93DF93BF
S11301308C01EB016A0179010E9453000E946D0059
S1130140F601918380830E946D00F701918380837F
S11301500E946D00F801918380830E946D00998351
S113016088830E946D00DF91CF911F910F91FF90C2
S1130170EF90DF90CF9008951092B90087E48093B8
S1130180B80084E08093BC00089584EA8093BC00A6
S11301908091BC008823E4F7089584E98093BC002F
S11301A008958093BB0084E88093BC008091BC00D8
S11301B08823E4F7089584EC8093BC008091BC000C
S11301C08823E4F78091BB00089584E88093BC0001
S11301D08091BC008823E4F78091BB0008959DECD6
S11301E0899F912D1124969596959695392F330FC5
S11301F0232F220F220F230F821B20E1929F800DB9
S113020011240895982F92959F70990F292F220FEA
S1130210220F920F8F70890F08956F927F928F92A1
S11302209F92AF92BF92CF92DF92EF92FF920F9381
S11302301F93CF93DF93EC015B014A0139010E94C4
S1130240C50080ED0E94D10080E00E94D1000E9490
S1130250C50081ED0E94D1000E94DB000E940201D2
S1130260F40180830E94DB000E940201F501808377
S11302700E94DB000E94020188830E94DB000E942E
S11302800201F30180830E94DB000E940201F80155
S113029080830E94DB000E940201F70180830E9498
S11302A0E5000E940201F60180830E94CD00DF91E7
S11302B0CF911F910F91FF90EF90DF90CF90BF905F
S11302C0AF909F908F907F906F900895CF92EF9210
S11302D0FF920F931F93CF93DF93D82F162FF42EF3
S11302E0C22F0E94C50080ED0E94D10080E00E94D0
S11302F0D1008F2D0E94EF000E94D100812F0E9417
S1130300EF000E94D1008D2F0E94EF000E94D100C7
S11303108C2F0E94EF000E94D100802F0E94EF00DA
S11303200E94D1008E2D0E94EF000E94D1008C2DDE
S11303300E94EF000E94D1000E94CD00DF91CF9176
S11303401F910F91FF90EF90CF9008950E94B102FA
S1130350789484E191E00E94BB020E94BC000F2EBD
S1130360F8E1CF2EF02D0F2EF6E0EF2EF02D0CE05D
S113037024E04DE26EE18EE00E9466010E94D70205
S11303808823C1F00E94DD02833739F481E090E0D4
S113039090936A01809369010BC0833529F410920C
S11303A06A011092690104C080E091E00E94BB02DE
S11303B00E94DA028091690190916A01892BF1F21D
S11303C00E9417022FEF87EA91E621508040904067
S11303D0E1F700C00000D2CF1092C10096E09093E4
S11303E0C2001092C5008093C4000895E1ECF0E0CF
S11303F08081886080830895E1ECF0E080818062F0
S113040080830895E1ECF0E080818F7D80830895FE
S1130410E1ECF0E08081806180830895E1ECF0E01C
S113042080818068808308958093C6000895CF9268
S1130430DF92EF92FF920F931F93CF93DF93CDB789
S1130440DEB7C357D1090FB6F894DEBF0FBECDBFD8
S11304509E0129593F4FAE014B595F4FBE01675969
S11304607F4FCE0185599F4F0E949000CE018D5839
S11304709F4F6C0101977C018E010F581F4F9E0105
S113048020593F4FAE0141595F4FBE0162597F4F22
S113049005970E940D01A7968EAD9FADA79785364F
S11304A0910534F084569109A7969FAF8EAFA79714
S11304B0E0968FADE0971F928F93AF968FADAF9775
S11304C01F928F93AE968FADAE971F928F93E49643
S11304D08FADE4971F928F93E3968FADE3971F92AE
S11304E08F93E2968FADE2971F928F93A7968FAD6D
S11304F0A7978F93A6968FADA6978F93AB968FAD44
S1130500AB978F93AA968FADAA978F93AD968FAD25
S1130510AD978F93AC968FADAC978F938BE691E0AC
S11305209F938F938E010F5F1F4F1F930F930E9412
S11305303303C8010E94BB020FB6F894DEBF0FBE9E
S1130540CDBFCD58DF4F0FB6F894DEBF0FBECDBF81
S1130550DF91CF911F910F91FF90EF90DF90CF909B
S1130560089587E60E94EC010E94F6010E940802A9
S11305700E940E020895AC0120E00DC0909120026B
S1130580993640F4E92FF0E0E954FE4F30839F5F41
S1130590909320022F5FFA01E20FF11D3081311197
S11305A0EDCF81E08093B5010E94FC010895809114
S11305B0B40108951092B40108958091B60108958C
S11305C01F920F920FB60F9211248F938091C60041
S11305D08093B60181E08093B4018F910F900FBE98
S11305E00F901F9018951F920F920FB60F9211241F
S11305F02F933F934F935F936F937F938F939F9327
S1130600AF93BF93EF93FF938091B5018823D1F00B
S1130610E091210280912002E81760F4F0E0E954AF
S1130620FE4F80810E941402809121028F5F80938B
S1130630210208C01092B5011092210210922002EA
S11306400E940202FF91EF91BF91AF919F918F9110
S11306507F916F915F914F913F912F910F900FBEBA
S11306600F901F901895AEE0B0E0E9E3F3E00C942E
S1130670F4050D891E8986E08C831A8309838FEF24
S11306809FE79E838D83AE01475E5F4F6F89788DB0
S1130690CE0101960E945503EF81F885E00FF11F0A
S11306A010822E96E4E00C941006ABE0B0E0EBE58B
S11306B0F3E00C94E6056C017B018A01FC011782CE
S11306C01682838181FFCCC1CE0101963C01F601E3
S11306D09381F70193FD859193FF81917F01882395
S11306E009F4BAC1853239F493FD859193FF819160
S11306F07F01853229F4B60190E00E944C05E7CFD2
S1130700912C212C312CFFE1F315D8F08B3279F0A8
S113071038F4803279F08332A1F4232D20611DC096
S11307208D3261F0803369F4232D216016C0832D4E
S11307308260382EE32DE4603E2E2AC0F32DF8604B
S11307401DC037FC2DC020ED280F2A3040F08E321A
S1130750B9F436FC81C1232D2064322E19C036FE33
S113076006C08AE0989E200D1124922E11C0EAE062
S11307702E9E200D1124222EF32DF0623F2E08C050
S11307808C3621F4832D8068382E02C0883641F4DB
S1130790F70193FD859193FF81917F018111B3CF7F
S11307A0982F9F7D9554933028F40C5F1F4F9FE33F
S11307B099830DC0833631F0833771F0833509F0A6
S11307C059C021C0F801808189830E5F1F4F88249E
S11307D08394912C530113C02801F2E04F0E511C55
S11307E0F801A080B18036FE03C0692D70E002C01C
S11307F06FEF7FEFC5010E9441054C018201F32D8B
S1130800FF773F2E16C0280122E0420E511CF8014A
S1130810A080B18036FE03C0692D70E002C06FEF86
S11308207FEFC5010E9436054C01F32DF0683F2E81
S1130830820133FC1BC0822D90E088169906B0F427
S1130840B60180E290E00E944C052A94F4CFF501B1
S113085037FC859137FE81915F01B60190E00E94DB
S11308604C0521102A9421E0821A910881149104E4
S113087071F7E8C0843611F0893641F5F80137FE86
S113088007C060817181828193810C5F1F4F08C012
S113089060817181072E000C880B990B0E5F1F4F2E
S11308A0F32DFF763F2E97FF09C0909580957095A4
S11308B061957F4F8F4F9F4FF0683F2E2AE030E0C5
S11308C0A3010E948805882E861845C0853731F417
S11308D0232D2F7EB22E2AE030E025C0932D997F60
S11308E0B92E8F36C1F018F4883579F0B5C0803749
S11308F019F0883721F0B0C0E92FE061BE2EB4FEB4
S11309000DC0FB2DF460BF2E09C034FE0AC0292F90
S11309102660B22E06C028E030E005C020E130E0B9
S113092002C020E132E0F801B7FE07C060817181A6
S1130930828193810C5F1F4F06C06081718180E0CA
S113094090E00E5F1F4FA3010E948805882E861831
S1130950FB2DFF773F2E36FE0DC0232D2E7FA22EBA
S1130960891458F434FE0BC032FC09C0832D8E7EEA
S1130970A82E05C0B82CA32C03C0B82C01C0B92CD8
S1130980A4FE0FC0FE01E80DF11D8081803321F427
S11309909A2D997EA92E09C0A2FE06C0B394B394E1
S11309A004C08A2D867809F0B394A3FC11C0A0FE7C
S11309B006C0B21488F4280C922C9B180EC0B214F2
S11309C060F4B60180E290E00E944C05B394F7CF46
S11309D0B21418F42B1802C0982C212CA4FE10C0B9
S11309E0B60180E390E00E944C05A2FE17C0A1FC72
S11309F003C088E790E002C088E590E0B6010CC02F
S1130A008A2D867859F0A1FE02C08BE201C080E2F3
S1130A10A7FC8DE2B60190E00E944C05891438F4DD
S1130A20B60180E390E00E944C059A94F7CF8A9433
S1130A30F301E80DF11D8081B60190E00E944C05A0
S1130A408110F5CF222009F442CEB60180E290E075
S1130A500E944C052A94F6CFF6018681978102C044
S1130A608FEF9FEF2B96E2E10C940206FC010590B8
S1130A70615070400110D8F7809590958E0F9F1F9C
S1130A800895FC016150704001900110D8F78095E1
S1130A9090958E0F9F1F08950F931F93CF93DF930D
S1130AA0FB01238121FD03C08FEF9FEF2CC022FFA8
S1130AB016C046815781248135814217530744F477
S1130AC0A081B1819D012F5F3F4F318320838C939F
S1130AD0268137812F5F3F4F3783268314C08B01D4
S1130AE0EC01FB010084F185E02D0995892BE1F6E9
S1130AF0D80116968D919C911797019617969C9301
S1130B008E931697CE01DF91CF911F910F91089587
S1130B10FA01AA27283051F1203181F1E8946F932A
S1130B206E7F6E5F7F4F8F4F9F4FAF4FB1E03ED0D0
S1130B30B4E03CD0670F781F891F9A1FA11D680F6E
S1130B40791F8A1F911DA11D6A0F711D811D911DA1
S1130B50A11D20D009F468943F912AE0269F112416
S1130B603019305D3193DEF6CF010895462F47707A
S1130B70405D4193B3E00FD0C9F7F6CF462F4F70D5
S1130B80405D4A3318F0495D31FD4052419302D033
S1130B90A9F7EACFB4E0A6959795879577956795D9
S1130BA0BA95C9F700976105710508959B01AC01D9
S1130BB00A2E06945795479537952795BA95C9F700
S1130BC0620F731F841F951FA01D08952F923F92DB
S1130BD04F925F926F927F928F929F92AF92BF9249
S1130BE0CF92DF92EF92FF920F931F93CF93DF93F5
S1130BF0CDB7DEB7CA1BDB0B0FB6F894DEBF0FBE52
S1130C00CDBF09942A88398848885F846E847D849E
S1130C108C849B84AA84B984C884DF80EE80FD80A0
S1130C200C811B81AA81B981CE0FD11D0FB6F89416
S1110C30DEBF0FBECDBFED010895F894FFCFD7
S1130C3E436F6D616E646F206E6F2076616C6964B4
S1130C4E6F0A0D005265676973747261646F722066
S1130C5E64652074656D7065726174757261207956
S1130C6E2068756D65646164200A0D20496E677293
S1130C7E65736520733A2070617261207265616ECE
S1130C8E756461722C2053207061726120646574E6
S1130C9E656E65722C0A0D2000010054454D503AC4
S1130CAE2025642E256420B0432048554D3A202536
S1130CBE30326425252046454348413A20253032BA
S1130CCE642F253032642F2530326420484F524130
S1130CDE3A20253032643A253032643A2530326473
S1070CEE0D0A0000E7
S9030000FC
