S00F00007470332D656E742E737265638A
S11300000C9434000C9449000C9449000C9449005D
S11300100C9449000C9449000C9449000C94490038
S11300200C9449000C9449000C9449000C94490028
S11300300C9449000C9449000C9449000C94490018
S11300400C9449000C9449000C9449000C94490008
S11300500C9449000C9449000C9449000C944900F8
S11300600C9449000C94490011241FBECFEFD8E032
S1130070DEBFCDBF11E0A0E0B1E0E6E6F1E002C0F2
S113008005900D92A036B107D9F70E944B000C944D
S1130090B1000C940000CF93DF931F92CDB7DEB76D
S11300A0198287E60E946F000E9479000E947F00F7
S11300B08FE091E00E948D000E94A9000E94AE0092
S11300C089838981833729F480E091E00E948D003F
S11300D0FFCF0E94850089810E948A00EDCF109293
S11300E0C10096E09093C2001092C5008093C400B2
S11300F00895E1ECF0E08081886080830895E1EC6C
S1130100F0E080818061808308958091C00085FF44
S1130110FCCF08958093C6000895EF92FF920F9349
S11301201F93CF937C01C0E007C00E948500F801B3
S113013080810E948A00CF5F87010C0F111DF80196
S113014080818111F2CFCF911F910F91FF90EF9099
S113015008958091C0008823E4F708958091C60033
S10901600895F894FFCF9E
S11301660A0D4861737461206C7565676F210048D8
S11301766F6C61204D756E646F2C207369207072EC
S11301866573696F6E6120277327207465726D69C4
S11301966E6120656C2070726F6772616D612C20D0
S11301A6706F72206661766F7220696E677265730E
S11301B66520756E61207465636C613A0A0D0000F2
S9030000FC
