:100000000C9434000C943E000C943E000C943E0082
:100010000C943E000C943E000C943E000C943E0068
:100020000C943E000C943E000C943E000C943E0058
:100030000C943E000C943E000C943E000C943E0048
:100040000C943E000C943E000C943E000C943E0038
:100050000C943E000C943E000C943E000C943E0028
:100060000C943E000C943E0011241FBECFEFD8E04C
:10007000DEBFCDBF0E9465000C9473000C9400009D
:1000800087B1816087B92FE78AE196E021508040EF
:100090009040E1F700C0000088B18E7F88B987E802
:1000A00093E10197F1F700C0000088B1816088B941
:1000B0009AE09A95F1F7089587B18E7F87B93099C4
:1000C000FECF86B13099FECF08950E9440000E9475
:1000D0005C002FEF83ED90E3215080409040E1F7EA
:0A00E00000C00000F2CFF894FFCF3B
:00000001FF
