S00F00007470332D656E742E737265638A
S11300000C9434000C9451000C9451000C94510045
S11300100C9451000C9451000C9451000C94510018
S11300200C9451000C9451000C9451000C94510008
S11300300C9451000C9451000C9451000C945100F8
S11300400C9451000C9451000C94C9020C94DC02E1
S11300500C9451000C9451000C9451000C945100D8
S11300600C9451000C94510011241FBECFEFD8E022
S1130070DEBFCDBF11E0A0E0B1E0E0E1FCE002C0F2
S113008005900D92A63BB107D9F722E0A6EBB1E0AB
S113009001C01D92A432B207E1F70E949E010C94A4
S11300A006060C94000087B1816087B988B18E7F01
S11300B088B92FEF80EE90E0215080409040E1F726
S11300C000C0000087B18E7F87B988B1816088B98C
S11300D03099FECF309BFECF089580E020E014C01D
S11300E03099FECF309BFECF90E005C035E03A95C5
S11300F0F1F700009F5F3099F9CF9D3110F4880F1C
S113010002C0880F8F5F2F5F283050F3880F8F5FF6
S11301100895CF92DF92EF92FF920F931F93CF93A4
S1130120DF937C01EB016A0189010E9453000E9464
S11301306D00F60180830E946D00F80180830E94A7
S11301406D00F70180830E946D0088830E946D001A
S1130150F80110821882DF91CF911F910F91FF90C7
S1130160EF90DF90CF9008951092B90087E48093C8
S1130170B80084E08093BC00089584EA8093BC00B6
S11301808091BC008823E4F7089584E98093BC003F
S113019008958093BB0084E88093BC008091BC00E8
S11301A08823E4F7089584EC8093BC008091BC001C
S11301B08823E4F78091BB00089584E88093BC0011
S11301C08091BC008823E4F78091BB0008959DECE6
S11301D0899F912D1124969596959695392F330FD5
S11301E0232F220F220F230F821B20E1929F800DC9
S11301F011240895982F92959F70990F292F220FFB
S1130200220F920F8F70890F08956F927F928F92B1
S11302109F92AF92BF92CF92DF92EF92FF920F9391
S11302201F93CF93DF93EC015B014A0139010E94D4
S1130230BD0080ED0E94C90080E00E94C9000E94B8
S1130240BD0081ED0E94C9000E94D3000E94FA0003
S1130250F40180830E94D3000E94FA00F501808398
S11302600E94D3000E94FA0088830E94D3000E9457
S1130270FA00F30180830E94D3000E94FA00F8017F
S113028080830E94D3000E94FA00F70180830E94B9
S1130290DD000E94FA00F60180830E94C500DF9110
S11302A0CF911F910F91FF90EF90DF90CF90BF906F
S11302B0AF909F908F907F906F900895CF92EF9220
S11302C0FF920F931F93CF93DF93D82F162FF42E03
S11302D0C22F0E94BD0080ED0E94C90080E00E94F0
S11302E0C9008F2D0E94E7000E94C900812F0E943F
S11302F0E7000E94C9008D2F0E94E7000E94C900F8
S11303008C2F0E94E7000E94C900802F0E94E70002
S11303100E94C9008E2D0E94E7000E94C9008C2D06
S11303200E94E7000E94C9000E94C500DF91CF919E
S11303301F910F91FF90EF90CF9008950E949A0221
S1130340789484E191E00E94A4020E94B4000F2EEC
S1130350F8E1CF2EF02D0F2EF6E0EF2EF02D0CE06D
S113036024E04DE26EE18EE00E945E010E94C00234
S11303708823C1F00E94C602833739F481E090E0FB
S113038090936A01809369010BC0833529F410921C
S11303906A011092690104C080E091E00E94A40205
S11303A00E94C3028091690190916A01892BF1F244
S11303B00E940F022FEF87EA91E62150804090407F
S11303C0E1F700C00000D2CF1092C10096E09093F4
S11303D0C2001092C5008093C4000895E1ECF0E0DF
S11303E08081886080830895E1ECF0E08081806200
S11303F080830895E1ECF0E080818F7D808308950F
S1130400E1ECF0E08081806180830895E1ECF0E02C
S113041080818068808308958093C6000895CF9278
S1130420DF92EF92FF920F931F93CF93DF93CDB799
S1130430DEB7CF56D1090FB6F894DEBF0FBECDBFDD
S1130440A9961FAEA9979E012A593F4FAE014B5959
S11304505F4FBE0169597F4FCE0188599F4F0E945B
S11304608900CE0181599F4F6C0101977C018E0157
S113047003591F4F9E0124593F4FAE0145595F4F09
S1130480BE0166597F4F05970E940501AC968FAD5A
S1130490AC971F928F93AB968FADAB971F928F93B0
S11304A0AA968FADAA971F928F93E0968FADE0978F
S11304B01F928F93AF968FADAF971F928F93AE9687
S11304C08FADAE971F928F93A7968FADA7971F926C
S11304D08F93A6968FADA6971F928F93A8968FADF4
S11304E0A8971F928F93A9968FADA9971F928F9368
S11304F08FE691E09F938F930C5611091F930F93EE
S11305000E941C03C8010E94A4020FB6F894DEBF27
S11305100FBECDBFC159DF4F0FB6F894DEBF0FBE7B
S1130520CDBFDF91CF911F910F91FF90EF90DF909E
S1130530CF90089587E60E94E4010E94EE010E9494
S113054000020E9406020895AC0120E00DC09091C3
S11305502202993640F4E92FF0E0E754FE4F30834D
S11305609F5F909322022F5FFA01E20FF11D308109
S11305703111EDCF81E08093B7010E94F401089519
S11305808091B60108951092B60108958091B80142
S113059008951F920F920FB60F9211248F9380919A
S11305A0C6008093B80181E08093B6018F910F90CB
S11305B00FBE0F901F9018951F920F920FB60F92B7
S11305C011242F933F934F935F936F937F938F9354
S11305D09F93AF93BF93EF93FF938091B7018823C9
S11305E0D1F0E091230280912202E81760F4F0E058
S11305F0E754FE4F80810E940C02809123028F5F9A
S11306008093230208C01092B70110922302109223
S113061022020E94FA01FF91EF91BF91AF919F9145
S11306208F917F916F915F914F913F912F910F9097
S11306300FBE0F901F901895AEE0B0E0E2E2F3E039
S11306400C94DD050D891E8986E08C831A83098349
S11306508FEF9FE79E838D83AE01475E5F4F6F8967
S1130660788DCE0101960E943E03EF81F885E00F5C
S1130670F11F10822E96E4E00C94F905ABE0B0E093
S1130680E4E4F3E00C94CF056C017B018A01FC01E6
S113069017821682838181FFCCC1CE0101963C0171
S11306A0F6019381F70193FD859193FF81917F0179
S11306B0882309F4BAC1853239F493FD859193FFF7
S11306C081917F01853229F4B60190E00E943505BD
S11306D0E7CF912C212C312CFFE1F315D8F08B328C
S11306E079F038F4803279F08332A1F4232D20613B
S11306F01DC08D3261F0803369F4232D216016C052
S1130700832D8260382EE32DE4603E2E2AC0F32D23
S1130710F8601DC037FC2DC020ED280F2A3040F0B2
S11307208E32B9F436FC81C1232D2064322E19C0D7
S113073036FE06C08AE0989E200D1124922E11C028
S1130740EAE02E9E200D1124222EF32DF0623F2E7E
S113075008C08C3621F4832D8068382E02C0883678
S113076041F4F70193FD859193FF81917F018111FC
S1130770B3CF982F9F7D9554933028F40C5F1F4F6F
S11307809FE399830DC0833631F0833771F083354D
S113079009F059C021C0F801808189830E5F1F4F81
S11307A088248394912C530113C02801F2E04F0E46
S11307B0511CF801A080B18036FE03C0692D70E0A1
S11307C002C06FEF7FEFC5010E942A054C01820130
S11307D0F32DFF773F2E16C0280122E0420E511C54
S11307E0F801A080B18036FE03C0692D70E002C01C
S11307F06FEF7FEFC5010E941F054C01F32DF068D8
S11308003F2E820133FC1BC0822D90E0881699068E
S1130810B0F4B60180E290E00E9435052A94F4CF4A
S1130820F50137FC859137FE81915F01B60190E0B7
S11308300E94350521102A9421E0821A910881141E
S1130840910471F7E8C0843611F0893641F5F80156
S113085037FE07C060817181828193810C5F1F4FD5
S113086008C060817181072E000C880B990B0E5F04
S11308701F4FF32DFF763F2E97FF09C0909580956B
S1130880709561957F4F8F4F9F4FF0683F2E2AE000
S113089030E0A3010E947105882E861845C0853773
S11308A031F4232D2F7EB22E2AE030E025C0932D83
S11308B0997FB92E8F36C1F018F4883579F0B5C018
S11308C0803719F0883721F0B0C0E92FE061BE2EDF
S11308D0B4FE0DC0FB2DF460BF2E09C034FE0AC067
S11308E0292F2660B22E06C028E030E005C020E1A2
S11308F030E002C020E132E0F801B7FE07C06081B9
S11309007181828193810C5F1F4F06C06081718168
S113091080E090E00E5F1F4FA3010E947105882EB6
S11309208618FB2DFF773F2E36FE0DC0232D2E7F1C
S1130930A22E891458F434FE0BC032FC09C0832D56
S11309408E7EA82E05C0B82CA32C03C0B82C01C0E1
S1130950B92CA4FE0FC0FE01E80DF11D8081803387
S113096021F49A2D997EA92E09C0A2FE06C0B39443
S1130970B39404C08A2D867809F0B394A3FC11C003
S1130980A0FE06C0B21488F4280C922C9B180EC04A
S1130990B21460F4B60180E290E00E943505B3948D
S11309A0F7CFB21418F42B1802C0982C212CA4FEF3
S11309B010C0B60180E390E00E943505A2FE17C086
S11309C0A1FC03C088E790E002C088E590E0B6018E
S11309D00CC08A2D867859F0A1FE02C08BE201C0BA
S11309E080E2A7FC8DE2B60190E00E9435058914EF
S11309F038F4B60180E390E00E9435059A94F7CF6D
S1130A008A94F301E80DF11D8081B60190E00E9403
S1130A1035058110F5CF222009F442CEB60180E2DB
S1130A2090E00E9435052A94F6CFF60186819781DD
S1130A3002C08FEF9FEF2B96E2E10C94EB05FC01D3
S1130A400590615070400110D8F7809590958E0FF5
S1130A509F1F0895FC016150704001900110D8F768
S1130A60809590958E0F9F1F08950F931F93CF939A
S1130A70DF93FB01238121FD03C08FEF9FEF2CC087
S1130A8022FF16C0468157812481358142175307BE
S1130A9044F4A081B1819D012F5F3F4F31832083B6
S1130AA08C93268137812F5F3F4F3783268314C071
S1130AB08B01EC01FB010084F185E02D0995892B64
S1130AC0E1F6D80116968D919C9117970196179689
S1130AD09C938E931697CE01DF91CF911F910F9126
S1130AE00895FA01AA27283051F1203181F1E894C0
S1130AF06F936E7F6E5F7F4F8F4F9F4FAF4FB1E00D
S1130B003ED0B4E03CD0670F781F891F9A1FA11D07
S1130B10680F791F8A1F911DA11D6A0F711D811D08
S1130B20911DA11D20D009F468943F912AE0269FCD
S1130B3011243019305D3193DEF6CF010895462F2C
S1130B404770405D4193B3E00FD0C9F7F6CF462F0D
S1130B504F70405D4A3318F0495D31FD4052419376
S1130B6002D0A9F7EACFB4E0A69597958795779533
S1130B706795BA95C9F700976105710508959B01BA
S1130B80AC010A2E06945795479537952795BA9543
S1130B90C9F7620F731F841F951FA01D08952F921C
S1130BA03F924F925F926F927F928F929F92AF92F9
S1130BB0BF92CF92DF92EF92FF920F931F93CF9346
S1130BC0DF93CDB7DEB7CA1BDB0B0FB6F894DEBFDD
S1130BD00FBECDBF09942A88398848885F846E8403
S1130BE07D848C849B84AA84B984C884DF80EE804D
S1130BF0FD800C811B81AA81B981CE0FD11D0FB656
S1130C00F894DEBF0FBECDBFED010895F894FFCF79
S1130C10436F6D616E646F206E6F2076616C6964E2
S1130C206F0A0D005265676973747261646F722094
S1130C3064652074656D7065726174757261207984
S1130C402068756D65646164200A0D20496E6772C1
S1130C5065736520733A2070617261207265616EFC
S1130C60756461722C205320706172612064657414
S1130C70656E65722C0A0D20000100530073005448
S1130C80454D503A2025642E256420B04320485514
S1130C904D3A2025642E25642046454348413A2098
S1130CA0253032642F253032642F253032642048B9
S1130CB04F52413A20253032643A253032643A2585
S1090CC03032640D0A004D
S9030000FC
