S00F00007470332D656E742E737265638A
S11300000C9434000C9451000C9451000C94510045
S11300100C9451000C9451000C9451000C94510018
S11300200C9451000C9451000C9451000C94510008
S11300300C9451000C9451000C9451000C945100F8
S11300400C9451000C9451000C9402030C9413036F
S11300500C9451000C9451000C9451000C945100D8
S11300600C9451000C94510011241FBECFEFD8E022
S1130070DEBFCDBF11E0A0E0B1E0E0E9FCE002C0EA
S113008005900D92A23BB107D9F722E0A2EBB1E0B3
S113009001C01D92AD32B207E1F70E94B4010C9485
S11300A046060C94000087B1816087B988B18E7FC1
S11300B088B92FEF80EE90E0215080409040E1F726
S11300C000C0000087B18E7F87B988B1816088B98C
S11300D03099FECF309BFECF089580E090E040E061
S11300E050E01AC03099FECF309BFECF20E030E0C4
S11300F006C065E06A95F1F700002F5F3F4F309925
S1130100F8CF2D3131051CF4880F991F03C0880FD7
S1130110991F81604F5F5F4F483051051CF308956C
S1130120CF92DF92EF92FF920F931F93CF93DF93BF
S11301308C01EB016A0179010E9453000E946D0059
S1130140F601918380830E946D00F701918380837F
S11301500E946D00F801918380830E946D00998351
S113016088830E946D00DF91CF911F910F91FF90C2
S1130170EF90DF90CF9008951092B90087E48093B8
S1130180B80084E08093BC00089584EA8093BC00A6
S11301908091BC008823E4F7089584E98093BC002F
S11301A08091BC0084FDFCCF08958093BB0084E85B
S11301B08093BC008091BC008823E4F7089584EC0C
S11301C08093BC008091BC008823E4F78091BB003D
S11301D0089584E88093BC008091BC008823E4F7F0
S11301E08091BB0008950E94BC000895EF92FF9295
S11301F00F931F93CF93DF93EC018B017A010E943D
S1130200C50080ED0E94D50080E00E94D5000E94C8
S1130210C50081ED0E94D5000E94DF00F7018083B4
S11302200E94DF00F80180830E94E90088830E9415
S1130230CD00DF91CF911F910F91FF90EF90089522
S1130240CF92DF92EF92FF920F931F93CF93DF939E
S11302506C017B018A01E9010E94C50080ED0E94C6
S1130260D50083E00E94D5000E94C50081ED0E9464
S1130270D5000E94DF00F60180830E94DF00F701B1
S113028080830E94DF00F80180830E94E900888354
S11302900E94CD00DF91CF911F910F91FF90EF90BD
S11302A0DF90CF9008959DEC899F912D1124969510
S11302B096959695392F330F232F220F220F230F54
S11302C0821B20E1929F800D112408950F931F93A8
S11302D0CF93DF93082F162FD42FC22F0E94C5006F
S11302E080ED0E94D50083E00E94D500802F0E94FB
S11302F053010E94D500812F0E9453010E94D50012
S11303008D2F0E9453010E94D5008C2F0E9453010F
S11303100E94D5000E94CD00DF91CF911F910F91D3
S113032008951F93CF93DF93C82FD62F142F0E94C5
S1130330C50080ED0E94D50080E00E94D500812F89
S11303400E9453010E94D5008D2F0E9453010E94E8
S1130350D5008C2F0E9453010E94D5000E94CD002D
S1130360DF91CF911F9108950E94D102789484E186
S113037091E00E94DB020E94F30040E06EE18EE017
S11303800E94910128E146E069E081E00E94660153
S11303900E94F702882321F10E94FF020E942D028D
S11303A00197C1F480912B0290912C02019729F4BA
S11303B010926A011092690106C081E090E0909366
S11303C06A018093690181E090E090932C0280930C
S11303D02B0204C080E091E00E94DB020E94FA023A
S11303E08091690190916A01892B91F20E944802DF
S11303F02FEF87EA91E6215080409040E1F700C05A
S11304000000C6CF1092C10096E09093C2001092F3
S1130410C5008093C4000895E1ECF0E08081886019
S113042080830895E1ECF0E0808180628083089508
S1130430E1ECF0E080818F7D80830895E1ECF0E0D1
S11304408081806180830895E1ECF0E080818068A0
S1130450808308958093C6000895CF93DF93EC01C1
S113046063E570E00E945303892B51F063E770E069
S1130470CE010E945303892B31F481E090E005C042
S113048081E090E002C082E090E0DF91CF91089596
S11304900F931F93CF93DF93CDB7DEB7C357D10923
S11304A00FB6F894DEBF0FBECDBF9E0129593F4F52
S11304B0AE014B595F4FBE0167597F4FCE0185593D
S11304C09F4F0E949000AE0141595F4FBE01625997
S11304D07F4FCE0183599F4F0E94F6009E012D58F5
S11304E03F4FAE014E585F4FBE016F587F4FCE0154
S11304F080599F4F0E942001E0968FADE0971F9294
S11305008F93AF968FADAF971F928F93AE968FADAB
S1130510AE971F928F93E4968FADE4971F928F93BB
S1130520E3968FADE3971F928F93E2968FADE29798
S11305301F928F93A7968FADA7978F93A6968FAD93
S1130540A6978F93AB968FADAB978F93AA968FADEB
S1130550AA978F93AD968FADAD978F93AC968FADD1
S1130560AC978F938BE691E09F938F938E010F5FEF
S11305701F4F1F930F930E945C03C8010E94DB026C
S11305800FB6F894DEBF0FBECDBFCD58DF4F0FB608
S1130590F894DEBF0FBECDBFDF91CF911F910F91B5
S11305A0089587E60E9402020E940C020E941E0225
S11305B00E9424020895AC0120E00DC0909129020C
S11305C0993640F4E92FF0E0E054FE4F30839F5F0A
S11305D0909329022F5FFA01E20FF11D308131114E
S11305E0EDCF81E08093B5010E94120208958091BD
S11305F0B20108951092B3011092B201089586EBEE
S113060091E008951F920F920FB60F9211248F93C9
S11306108091C60081E08093B4018F910F900FBE4A
S11306200F901F9018951F920F920FB60F921124DE
S11306302F933F934F935F936F937F938F939F93E6
S1130640AF93BF93EF93FF938091B5018823D1F0CB
S1130650E0912A0280912902E81760F4F0E0E05466
S1130660FE4F80810E942A0280912A028F5F80932C
S11306702A0208C01092B50110922A02109229028F
S11306800E941802FF91EF91BF91AF919F918F91BA
S11306907F916F915F914F913F912F910F900FBE7A
S11306A00F901F901895FB01DC018D91019080192A
S11306B00110D9F3990B0895AEE0B0E0E2E6F3E05F
S11306C00C941D060D891E8986E08C831A83098388
S11306D08FEF9FE79E838D83AE01475E5F4F6F89E7
S11306E0788DCE0101960E947E03EF81F885E00F9C
S11306F0F11F10822E96E4E00C943906ABE0B0E0D2
S1130700E4E8F3E00C940F066C017B018A01FC0120
S113071017821682838181FFCCC1CE0101963C01F0
S1130720F6019381F70193FD859193FF81917F01F8
S1130730882309F4BAC1853239F493FD859193FF76
S113074081917F01853229F4B60190E00E947505FC
S1130750E7CF912C212C312CFFE1F315D8F08B320B
S113076079F038F4803279F08332A1F4232D2061BA
S11307701DC08D3261F0803369F4232D216016C0D1
S1130780832D8260382EE32DE4603E2E2AC0F32DA3
S1130790F8601DC037FC2DC020ED280F2A3040F032
S11307A08E32B9F436FC81C1232D2064322E19C057
S11307B036FE06C08AE0989E200D1124922E11C0A8
S11307C0EAE02E9E200D1124222EF32DF0623F2EFE
S11307D008C08C3621F4832D8068382E02C08836F8
S11307E041F4F70193FD859193FF81917F0181117C
S11307F0B3CF982F9F7D9554933028F40C5F1F4FEF
S11308009FE399830DC0833631F0833771F08335CC
S113081009F059C021C0F801808189830E5F1F4F00
S113082088248394912C530113C02801F2E04F0EC5
S1130830511CF801A080B18036FE03C0692D70E020
S113084002C06FEF7FEFC5010E946A054C0182016F
S1130850F32DFF773F2E16C0280122E0420E511CD3
S1130860F801A080B18036FE03C0692D70E002C09B
S11308706FEF7FEFC5010E945F054C01F32DF06817
S11308803F2E820133FC1BC0822D90E0881699060E
S1130890B0F4B60180E290E00E9475052A94F4CF8A
S11308A0F50137FC859137FE81915F01B60190E037
S11308B00E94750521102A9421E0821A910881145E
S11308C0910471F7E8C0843611F0893641F5F801D6
S11308D037FE07C060817181828193810C5F1F4F55
S11308E008C060817181072E000C880B990B0E5F84
S11308F01F4FF32DFF763F2E97FF09C090958095EB
S1130900709561957F4F8F4F9F4FF0683F2E2AE07F
S113091030E0A3010E94B105882E861845C08537B2
S113092031F4232D2F7EB22E2AE030E025C0932D02
S1130930997FB92E8F36C1F018F4883579F0B5C097
S1130940803719F0883721F0B0C0E92FE061BE2E5E
S1130950B4FE0DC0FB2DF460BF2E09C034FE0AC0E6
S1130960292F2660B22E06C028E030E005C020E121
S113097030E002C020E132E0F801B7FE07C0608138
S11309807181828193810C5F1F4F06C060817181E8
S113099080E090E00E5F1F4FA3010E94B105882EF6
S11309A08618FB2DFF773F2E36FE0DC0232D2E7F9C
S11309B0A22E891458F434FE0BC032FC09C0832DD6
S11309C08E7EA82E05C0B82CA32C03C0B82C01C061
S11309D0B92CA4FE0FC0FE01E80DF11D8081803307
S11309E021F49A2D997EA92E09C0A2FE06C0B394C3
S11309F0B39404C08A2D867809F0B394A3FC11C083
S1130A00A0FE06C0B21488F4280C922C9B180EC0C9
S1130A10B21460F4B60180E290E00E947505B394CC
S1130A20F7CFB21418F42B1802C0982C212CA4FE72
S1130A3010C0B60180E390E00E947505A2FE17C0C5
S1130A40A1FC03C088E790E002C088E590E0B6010D
S1130A500CC08A2D867859F0A1FE02C08BE201C039
S1130A6080E2A7FC8DE2B60190E00E94750589142E
S1130A7038F4B60180E390E00E9475059A94F7CFAC
S1130A808A94F301E80DF11D8081B60190E00E9483
S1130A9075058110F5CF222009F442CEB60180E21B
S1130AA090E00E9475052A94F6CFF601868197811D
S1130AB002C08FEF9FEF2B96E2E10C942B06FC0112
S1130AC00590615070400110D8F7809590958E0F75
S1130AD09F1F0895FC016150704001900110D8F7E8
S1130AE0809590958E0F9F1F08950F931F93CF931A
S1130AF0DF93FB01238121FD03C08FEF9FEF2CC007
S1130B0022FF16C04681578124813581421753073D
S1130B1044F4A081B1819D012F5F3F4F3183208335
S1130B208C93268137812F5F3F4F3783268314C0F0
S1130B308B01EC01FB010084F185E02D0995892BE3
S1130B40E1F6D80116968D919C9117970196179608
S1130B509C938E931697CE01DF91CF911F910F91A5
S1130B600895FA01AA27283051F1203181F1E8943F
S1130B706F936E7F6E5F7F4F8F4F9F4FAF4FB1E08C
S1130B803ED0B4E03CD0670F781F891F9A1FA11D87
S1130B90680F791F8A1F911DA11D6A0F711D811D88
S1130BA0911DA11D20D009F468943F912AE0269F4D
S1130BB011243019305D3193DEF6CF010895462FAC
S1130BC04770405D4193B3E00FD0C9F7F6CF462F8D
S1130BD04F70405D4A3318F0495D31FD40524193F6
S1130BE002D0A9F7EACFB4E0A695979587957795B3
S1130BF06795BA95C9F700976105710508959B013A
S1130C00AC010A2E06945795479537952795BA95C2
S1130C10C9F7620F731F841F951FA01D08952F929B
S1130C203F924F925F926F927F928F929F92AF9278
S1130C30BF92CF92DF92EF92FF920F931F93CF93C5
S1130C40DF93CDB7DEB7CA1BDB0B0FB6F894DEBF5C
S1130C500FBECDBF09942A88398848885F846E8482
S1130C607D848C849B84AA84B984C884DF80EE80CC
S1130C70FD800C811B81AA81B981CE0FD11D0FB6D5
S1130C80F894DEBF0FBECDBFED010895F894FFCFF9
S1130C90436F6D616E646F206E6F2076616C696462
S1130CA06F0A0D005265676973747261646F722014
S1130CB064652074656D7065726174757261207904
S1130CC02068756D65646164200A0D20496E677241
S1130CD065736520733A2070617261207265616E7C
S1130CE0756461722C205320706172612064657494
S1130CF0656E65722C0A0D2000010054454D503A72
S1130D002025642E256420B0432048554D3A2025E3
S1130D106425252046454348413A20253032642F36
S1130D20253032642F2530326420484F52413A2016
S1130D30253032643A253032643A253032640D0A63
S1050D400000AD
S9030000FC
