S00F00007470332D656E742E737265638A
S11300000C9434000C943E000C943E000C943E007E
S11300100C943E000C943E000C943E000C943E0064
S11300200C943E000C943E000C943E000C943E0054
S11300300C943E000C943E000C943E000C943E0044
S11300400C943E000C943E000C943E000C943E0034
S11300500C943E000C943E000C943E000C943E0024
S11300600C943E000C943E0011241FBECFEFD8E048
S1130070DEBFCDBF0E945C000C9468000C940000AD
S113008087B1816087B92FE78AE196E021508040EB
S11300909040E1F700C0000088B18E7F88B987E8FE
S11300A093E10197F1F700C0000088B1816088B93D
S11300B09AE09A95F1F708950E9440002FEF83ED9E
S11300C090E3215080409040E1F700C00000F4CF5D
S10700D0F894FFCFCE
S9030000FC
